:020000040000FA
:10000000BAEF00F0F76A140FF66E000EF72209003F
:10001000F55012005645522031322F31382F3037EB
:100020000D009EAAFED7ABCF05F0AECF01F005A222
:1000300002D0AB98AB88F8EF01F03250016A315C26
:1000400003E231C000F00CD0006A080E336E313686
:1000500000363250005CD8B0006E0136332EF7D730
:10006000000C200E2CA8300E2D6E2BC000F02BAEF5
:1000700007D0001E002A00C02BF02D0E2D6E2C8EF6
:1000800001502BC031F0640E326ED7DF00C02BF070
:10009000300E01242E6E2BC031F00A0E326ECDDFF1
:1000A000300E0024306E300E01242F6E2DC000F073
:1000B0002CA602D02CAE2C942CB80BD02CAE22D077
:1000C0002CB420D000C02EF02CB21CD000C02FF0D9
:1000D00019D0300E2E5C16E100C02EF0200E2D6ED1
:1000E0002CA604D02C942C822CAE2C92300E2F5C9B
:1000F00009E100C02FF0200E2E6E2CA6F7D72C920F
:100100002CAE2C902CA404D02D509EA8FED7AD6E02
:100110002CA204D02E509EA8FED7AD6E2CA004D0E9
:100120002F509EA8FED7AD6E30509EA8FED7AD6E64
:10013000000C2FBE10D00F0E006E2E3800160A0EC7
:10014000005C03E2300E002602D02F500026005043
:100150009EA8FED7AD6E0F0E2E160A0E2E5C02E282
:10016000300E02D02F9E2F502E262E509EA8FED746
:10017000AD6E000CF86AD09EEA6AE96AB896400E45
:10018000AF6EA60EAC6E900EAB6EC150C00B0F09D9
:10019000C16E070EB46E056A066A076A0C6A0D6ABC
:1001A000236A246A256A266A050E276E286A296A48
:1001B000C69A949A94889496200EC66E000EC76EC6
:1001C000C150C00B1609C16EC050C00B1109C06EE2
:1001D000C08EC280D180800ED56ECD6A000ECA6EF0
:1001E000000ECB6EB150480BB16E070EB46E92503C
:1001F0000400070E006E002EFED700D0B450A19C64
:10020000B56A226A2250040818E3D8902234036A9F
:10021000180FE96E000E0320EA6EEC6AED52EF6AE9
:10022000D8902234036A0E0FE96E000E0320EA6EA6
:10023000EC6AED52EF6A222AE5D72B6A2B50E2DEF8
:100240002B2A006E00509EA8FED7AD6E0D0E2B5CC3
:10025000F5E1020E276E938881B802D0010E2726A1
:10026000938681B602D0020E2726236A226A225084
:100270000408D8A0B6D0225009E0010A0EE0030A13
:1002800013E0010A18E0070A1DE023D0200E016EDA
:10029000C250C30B0110C26E1CD0040E016EC250BE
:1002A000C30B0110C26E15D0080E016EC250C30BF5
:1002B0000110C26E0ED0000E016EC250C30B0110B1
:1002C000C26E07D0100E016EC250C30B0110C26E79
:1002D00000D0C282C2B2FED7C3CF0CF0C4CF0DF0A3
:1002E000D8902234036A180FE96E000E0320EA6EDC
:1002F0000C50EF24016E0D50EC20ED5201C0EFFFC9
:10030000EC6ED8902234036A0E0F016E000E0322A9
:1003100003C02CF0D8902234036A180FE96E000E47
:100320000320EA6EECCF2EF0ED52EFCF2DF02E3001
:10033000036E2D30026E0332023203320232033278
:10034000023203320232070E03162CC0EAFF01C04C
:10035000E9FF03C0ECFFED5202C0EFFFD89022345A
:10036000036A180F016E000E032203C02CF003C0B5
:10037000EAFF01C0E9FFECCF2EF0ED52EFCF2DF0F8
:10038000D8902234036A0E0FE96E000E0320EA6E45
:10039000ECCF03F0ED52EF502D5C006E03502E5861
:1003A0002CC0EAFF01C0E9FFEC6EED5200C0EFFF88
:1003B000D8902234036A0E0FE96E000E0320EA6E15
:1003C000ECCF2CF0ED52EFCF2BF02C50020807E2CF
:1003D000FF0A03E12B50830802E2010E236E222A5A
:1003E00046D79EAAF6D025C026F024C025F019D6FF
:1003F00001C024F024500D08D8A4EBD02550640A85
:1004000009E0010A47E00C0AD8B48DD01A0AD8B422
:10041000B8D0DFD02650310A09E0030A09E0010A0A
:1004200009E0070A09E0010A09E00BD0298009D098
:10043000298207D0298405D0298603D0298801D0B4
:1004400027D0286A938081B02880928C80BC288233
:10045000938A81BA2884938C81AC2886938E81AE4E
:100460002888730E9EA8FED7AD6E27C02BF0180EFD
:100470002C6EF7DD28C02EF0370E2F6E5ADE29C005
:100480002EF0370E2F6E55DE0D0E9EA8FED7AD6EE8
:1004900000009FD02650300A0BE0010A0BE0030A4F
:1004A0000CE0010A0DE0070A0EE0010A0FE012D08D
:1004B000296A10D01E0E29160DD01D0E29160AD03D
:1004C0001B0E291607D0170E291604D00F0E291659
:1004D00001D027D0286A938081B02880928C80BC7C
:1004E0002882938A81BA2884938C81AC2886938E43
:1004F00081AE2888730E9EA8FED7AD6E27C02BF064
:10050000180E2C6EAEDD28C02EF0370E2F6E11DEC9
:1005100029C02EF0370E2F6E0CDE0D0E9EA8FED7D2
:10052000AD6E000056D0265030082AE2265035081D
:1005300027E3310E265C006ED89000360050036A27
:100540000E0FE96E000E0320EA6EECCF2DF0ED5297
:10055000EFCF2CF0690E9EA8FED7AD6E26509EA858
:10056000FED7AD6E2DC02EF0D70E2F6EE2DD2CC063
:100570002EF0570E2F6EDDDD0D0E9EA8FED7AD6E50
:1005800028D0286A938081B02880928C80BC2882F1
:10059000938A81BA2884938C81AC2886938E81AE0D
:1005A0002888730E9EA8FED7AD6E27C02BF0180EBC
:1005B0002C6E57DD28C02EF0370E2F6EBADD29C005
:1005C0002EF0370E2F6EB5DD0D0E9EA8FED7AD6E48
:1005D00000D08988929829C02BF02B1EC9502BC0BF
:1005E000C9FFC7A0FED7C9CF2AF0899892989382F5
:1005F00081A205D0235203E18B84949402D08B9482
:100600009494948082A003D08B92949202D08B8297
:08061000949204002AD6FFD7E2
:0C3FF00031322F32322F323030370000D7
:023FFE000002BF
:020000040030CA
:0E00000000C51904008700000FC00FE00F407C
:00000001FF
;PIC18F2420
